:100000000C94AF0A0C94E00A0C94E00A0C94E00AF9
:100010000C94E00A0C94E00A0C94E00A0C94E00AB8
:100020000C94E00A0C94E00A0C94E00A0C94E00AA8
:100030000C94E00A0C94E00A0C94E00A0C94E00A98
:100040000C94E00A0C9438470C94E00A0C94E00AF3
:100050000C94E00A0C94E00A0C947A5A0C94F55B28
:100060000C94E00A0C944B110C94E00A0C94E00AF6
:100070000C94E00A0C94E00A0C94E00A0C94E00A58
:100080000C94E00A0C94E00A0C94E00A0C94E00A48
:100090000C94E00A0C94E00A0C94E00A0C94E00A38
:1000A0000C94E00A0C94E00A0C94E00A0C94E00A28
:1000B0000C94E00A0C94E00A0C94E00A0C94E00A18
:1000C0000C94E00A0C94E00A0C94E00A0C94E00A08
:1000D0000C94E00A0C94E00A0C94E00A0C94E00AF8
:1000E0000C94E00A084AD73B3BCE016E84BCBFFDAE
:1000F000C12F3D6C74319ABD56833DDA3D00C77FF8
:1001000011BED9E4BB4C3E916BAAAABE0000008090
:100110003F05A84CCDB2D44EB93836A9020C50B91F
:10012000918688083CA6AAAA2ABE000000803F65E6
:1001300063686F3A0048617264636F646564204469
:10014000656661756C742053657474696E6773209D
:100150004C6F616465640053746F726564207365ED
:100160007474696E6773207265747269657665640C
:10017000002044002049002020204D333031205001
:10018000005049442073657474696E67733A0020A7
:100190005A0020590020204D323036205800486F38
:1001A0006D65206F666673657420286D6D293A0051
:1001B000204500205A0020580020420020540020F2
:1001C000204D323035205300416476616E636564A2
:1001D000207661726961626C65733A20533D4D69A6
:1001E0006E20666565647261746520286D6D2F737D
:1001F000292C20543D4D696E2074726176656C2007
:10020000666565647261746520286D6D2F73292C95
:1002100020423D6D696E696D756D207365676D6512
:100220006E742074696D6520286D73292C20583DEB
:100230006D6178696D756D205859206A65726B2003
:10024000286D6D2F73292C20205A3D6D6178696DC2
:10025000756D205A206A65726B20286D6D2F732989
:100260002C2020453D6D6178696D756D2045206AB3
:1002700065726B20286D6D2F73290020540020209B
:100280004D323034205300416363656C6572617494
:10029000696F6E3A20533D616363656C657261748A
:1002A000696F6E2C20543D726574726163742061B5
:1002B0006363656C65726174696F6E002045002030
:1002C0005A0020590020204D3230312058004D6115
:1002D00078696D756D20416363656C6572617469E1
:1002E0006F6E20286D6D2F7332293A002045002053
:1002F0005A0020590020204D3230332058004D61E3
:1003000078696D756D2066656564726174657320CA
:10031000286D6D2F73293A00204500205A0020597E
:100320000020204D393220580053746570732070BE
:10033000657220756E69743A0053657474696E67EE
:10034000732053746F726564006563686F3A00458B
:1003500072726F723A005072696E746572207374B3
:100360006F707065642064756520746F20657272AB
:100370006F72732E204669782074686520657272EA
:100380006F7220616E6420757365204D3939392094
:10039000746F20726573746172742E202854656DB9
:1003A000706572617475726520697320726573651A
:1003B000742E205365742069742061667465722000
:1003C00072657374617274696E6729005072696E28
:1003D0007420696E746572727570746564206279D8
:1003E0002073746F7020627574746F6E2E20546F5A
:1003F0002072652D656E61626C65207072696E7425
:10040000696E672C20707573682074686520667249
:100410006F6E742070616E656C20627574746F6E9F
:10042000206261636B20696E2C20696E20746865A0
:1004300020436F6E6E656374696F6E2073656374BD
:10044000696F6E20636C69636B206F6E20436F6E03
:100450006E656374207468656E20776169742066C8
:100460006F7220746865207072696E746572207492
:100470006F207265636F6E6E6563742E20596F75A1
:100480002077696C6C206E65656420746F207265DE
:10049000737461727420796F7572207072696E74F2
:1004A0002E006F6B00526573656E643A2000220067
:1004B000556E6B6E6F776E20636F6D6D616E643A13
:1004C0002022005A204F6666736574203A20007A15
:1004D0005F6D61783A20007A5F6D696E3A20005A4C
:1004E000204F6666736574005A204F6666736574A4
:1004F000206F6B007A5F6D61783A20007A5F6D69DA
:100500006E3A2000795F6D61783A2000795F6D69FD
:100510006E3A2000785F6D61783A2000785F6D69EF
:100520006E3A2000205A3A0020593A0020436F7555
:100530006E7420583A200020453A00205A3A002094
:10054000593A00583A004649524D574152455F4E7C
:10055000414D453A4D61726C696E20285479706541
:100560002041204D616368696E65732C207265615E
:100570006C6C6F73657229204649524D5741524544
:100580005F55524C3A68747470733A2F2F777777AF
:100590002E6269746275636B65742E6F72672F7457
:1005A000797065616D616368696E65732F6D6172E5
:1005B0006C696E2050524F544F434F4C5F5645521A
:1005C00053494F4E3A312E30204D414348494E4514
:1005D0005F545950453A547970652041204D61630C
:1005E00068696E65732053657269657320312045B3
:1005F000585452554445525F434F554E543A31205A
:10060000555549443A30303030303030302D30306C
:1006100030302D303030302D303030302D303030E3
:100620003030303030303030300A0020423A002054
:10063000453A00543A0020573A0020453A00543ACF
:100640000048656174696E67002042403A002040AE
:100650003A00202F003A00205400202F0020423A78
:1006600000202F006F6B20543A002569206D696EC1
:100670002C2025692073656300FF01FF00809843EB
:1006800000809843008098430000A0400000A040F4
:1006900000000040000000000080984300000000BF
:1006A00000000000000000000000000000809843EF
:1006B00000809843008098435072696E7465722080
:1006C00073746F707065642064756520746F206545
:1006D00072726F72732E2046697820746865206587
:1006E00072726F7220616E6420757365204D3939A6
:1006F0003920746F20726573746172742E202854CF
:10070000656D7065726174757265206973207265BC
:100710007365742E20536574206974206166746556
:10072000722072657374617274696E6729006F6BF1
:10073000004E6F204C696E65204E756D62657220AB
:100740007769746820636865636B73756D2C204CE2
:10075000617374204C696E653A20004E6F204368C7
:1007600065636B73756D2077697468206C696E655D
:10077000206E756D6265722C204C617374204C691B
:100780006E653A2000636865636B73756D206D69F3
:10079000736D617463682C204C617374204C696EB6
:1007A000653A20004C696E65204E756D6265722059
:1007B0006973206E6F74204C617374204C696E6590
:1007C000204E756D6265722B312C204C6173742044
:1007D0004C696E653A20004D313130002020506C5C
:1007E000616E6E6572427566666572427974657394
:1007F0003A20002046726565204D656D6F72793A2A
:100800002000417567202031203230313500436FA0
:100810006D70696C65643A200028547970652041D8
:10082000204D616368696E65732C207265616C6C24
:100830006F7365722900207C20417574686F723A6D
:10084000200041756720203120323031352031358C
:100850003A34393A313600204C6173742055706453
:10086000617465643A2000312E302E30004D617283
:100870006C696E0020536F667477617265205265F3
:1008800073657400205761746368646F67205265F4
:10089000736574002042726F776E206F75742052FA
:1008A00065736574002045787465726E616C2052C2
:1008B0006573657400506F7765725570007374616D
:1008C0007274002200656E717565696E6720220082
:1008D0002200656E717565696E6720220065636828
:1008E0006F3A0020746F6F206C6F6E6720657874AC
:1008F000727573696F6E2070726576656E7465646B
:100900000020636F6C6420657874727573696F6E14
:100910002070726576656E7465640045303A20001B
:100920005A3A2000593A2000583A20004D53312CB1
:100930004D53322050696E730A0024F404D9201BF1
:10094000C40C5C0E9804C4095F0265077101F405CC
:10095000F900FB04B30048048700C1036900580391
:10096000550003034500BE023A00840231005302E1
:100970002A002902250004022000E4011C00C8010D
:100980001900AF01170098011400840113007101D0
:1009900010006101100051010E0043010D003601ED
:1009A0000B002B010B0020010B00150109000C01AD
:1009B000090003010800FB000800F3000800EB0039
:1009C0000700E4000600DE000600D8000600D200A2
:1009D0000600CC000500C7000500C2000500BD00F0
:1009E0000400B9000400B5000400B1000400AD002B
:1009F0000400A9000400A5000300A20003009F005A
:100A000004009B000300980003009500020093007F
:100A10000300900003008D0002008B00030088009B
:100A200002008600020084000300810002007F00B3
:100A300002007D0002007B000200790002007700C6
:100A400001007600020074000200720001007100D3
:100A500002006F0002006D0001006C0002006A00DD
:100A600001006900020067000100660001006500E6
:100A700001006400020062000100610001006000EA
:100A800001005F0002005D0001005C0001005B00EE
:100A900001005A00010059000100580001005700F0
:100AA00001005600010055000100540001005300F0
:100AB00000005300010052000100510001005000ED
:100AC00001004F0001004E0000004E0001004D00EB
:100AD00001004C0001004B0000004B0001004A00E7
:100AE00001004900010048000000480001004700E3
:100AF00001004600000046000100450000004500DE
:100B000001004400010043000000430001004200D6
:100B100000004200010041000000410001004000CF
:100B200001003F0000003F0001003E0000003E00C9
:100B300001003D0000003D0001003C0000003C00C1
:100B400000003C0001003B0000003B0001003A00B7
:100B500000003A00010039000000390001003800AF
:100B600000003800000038000100370000003700A6
:100B7000010036000000360000003600010035009C
:100B80000000350000003500010034000000340092
:100B90000000340001003300000033000000330087
:100BA000010032000000320000003200010031007C
:100BB0000000310000003100010030000000300072
:100BC0000000300001002F0000002F0000002F0067
:100BD00000002F0001002E0000002E0000002E005B
:100BE00001002D0000002D0000002D0000002D0050
:100BF00001002C0000002C0000002C0000002C0044
:100C000001002B0000002B0000002B0000002B0037
:100C100001002A0000002A0000002A0000002A002B
:100C2000010029000000290000002900000029001F
:100C30000000290001002800000028000000280012
:100C40000000280000002800010027000000270005
:100C500000002700000027000000270001002600F8
:100C600000002600000026000000260000002600EC
:100C700001002500000025000000250000002500DF
:100C800000002500000025000100240000002400D1
:100C900000002400000024000000240001002300C4
:100CA00000002300000023000000230000002300B8
:100CB00000002300000023000100220000002200A9
:100CC000000022000000220000002200000022009C
:100CD000010021000000210000002100000021008F
:100CE0000000210000002100000021000100200080
:100CF0000000200000002000000020000000200074
:100D000000002000000020000000200001001F0063
:100D100000001F0000001F0000001F0000001F0057
:100D200000001F0000001F0001001E0000001E0048
:100D300000001E0000001E00000024F4D43050C348
:100D40008E20C2A24017828B7011127A910D816C95
:100D5000D90AA861E108C7586607615143061E4BCE
:100D60005D05C145A7041A411104093D9803713975
:100D700031034036DB0265339102D4305402802EB9
:100D80001D02632CEE01752AC501B028A0011027B1
:100D900081018F2564012B244B01E0223401AC2119
:100DA0001F018D200D01801FFC00841EED00971D8A
:100DB000DF00B81CD200E61BC600201BBC00641A72
:100DC000B200B219A8000A19A0006A189900D11738
:100DD000910040178B00B516840031167E00B315C4
:100DE00079003A157300C7146F0058146A00EE13A7
:100DF00066008813630025135E00C7125B006C1247
:100E0000570015125400C111510070114F002111EB
:100E10004B00D61049008D104700461044000210C8
:100E20004200C00F4000800F3E00420F3C00060F02
:100E30003B00CB0E3800930E37005C0E3500270EBA
:100E40003400F30D3200C10D3100900D3000600D03
:100E50002E00320D2D00050D2C00D90C2B00AE0CF0
:100E60002900850C29005C0C2700350C27000E0C8E
:100E70002600E80B2400C40B2400A00B23007D0BEC
:100E800023005A0B2100390B2100180B2000F80A0F
:100E90001F00D90A1E00BB0A1E009D0A1D00800A01
:100EA0001D00630A1C00470A1B002C0A1B00110AC4
:100EB0001A00F7091A00DD091900C4091900AB0965
:100EC0001900920917007B091800630917004C09E3
:100ED000160036091600200916000A091500F50843
:100EE0001500E0081400CC081400B8081400A40889
:100EF0001400900813007D0812006B0813005808B6
:100F000012004608120034081100230811001208CC
:100F1000110001081100F0071000E0071000D007D1
:100F20001000C0071000B0070F00A10710009107C4
:100F30000E0083070F0074070F0065070E005707A8
:100F40000E0049070E003B070D002E070E0020077C
:100F50000D0013070D0006070D00F9060C00ED0645
:100F60000D00E0060C00D4060C00C8060C00BC0600
:100F70000C00B0060C00A4060B0099060C008D06B0
:100F80000B0082060B0077060B006C060B00610657
:100F90000A0057060B004C060A0042060A003806F3
:100FA0000A002E060A0024060A001A060A00100685
:100FB000090007060A00FD050900F4050900EB0514
:100FC0000900E2050900D9050900D0050900C70597
:100FD0000900BE050900B5050800AD050800A50516
:100FE00009009C050800940508008C05080084058C
:100FF00008007C050800740508006C0507006505FD
:1010000008005D050700560508004E050700470566
:1010100007004005080038050700310507002A05CC
:101020000700230507001C050600160507000F052D
:1010300007000805060002050700FB040600F5048A
:101040000700EE040600E8040600E2040700DB04E3
:101050000600D5040600CF040600C9040600C30438
:101060000600BD040600B7040600B1040500AC0488
:101070000600A6040600A00405009B0406009504D3
:101080000500900406008A0405008504050080041C
:1010900006007A04050075040500700405006B0461
:1010A000050066040500610405005C0405005704A2
:1010B0000500520405004D040500480405004304E2
:1010C00005003E0404003A04050035040500300420
:1010D00004002C04050027040400230405001E045A
:1010E00004001A04040016040500110404000D0491
:1010F0000400090405000404040000040400FC03C7
:101100000400F8030400F4030400F0030400EC03FB
:101110000400E8030400E4030400E0030400DC032B
:101120000400D8030400D4030400D0030400CC035B
:101130000400C8030300C50303006563686F3A0039
:10114000205A3A0020593A0020583A00656E6473DC
:10115000746F7073206869743A20004572726F7200
:101160003A0054656D7065726174757265206865CA
:10117000617465642062656420737769746368656F
:1011800064206F66662E204D415854454D502074A2
:101190007269676765726564202121003A2045788D
:1011A000747275646572207377697463686564200E
:1011B0006F66662E204D494E54454D50207472691D
:1011C0006767657265642021003A204578747275FE
:1011D000646572207377697463686564206F6666FE
:1011E0002E204D415854454D5020747269676765F3
:1011F000726564202100202D20496E76616C69643F
:10120000206578747275646572206E756D626572A2
:1012100020210070012C0190012701B0012201C0A2
:10122000011D01F00118011002130130020E0160CE
:1012300002090190020401C002FF000003FA00400D
:1012400003F5008003F000D003EB002004E60070FB
:1012500004E100E004DC004005D700C005D20040F6
:1012600006CD00D006C8008007C3003008BE00F0DD
:1012700008B900C009B400B00AAF00B00BAA00D092
:101280000CA500000EA000500F9B00C0109600504F
:1012900012910000148C00C0158700B0178200B0B6
:1012A000197D00D01B7800001E730040206E009056
:1012B000226900F024640040275F0090295A00E072
:1012C0002B5500102E500020304B0010324600E00D
:1012D00033410090353C001037370070383200A0A1
:1012E000392D00B03A2800A03B2300603C1E0010BE
:1012F0003D1900903D1400103E0F00703E0A00C0E2
:101300003E0500003F0000504944204175746F7451
:10131000756E652066696E69736865642120507515
:101320007420746865206C617374204B702C204BA2
:101330006920616E64204B6420636F6E7374616E0C
:1013400074732066726F6D2061626F766520696EBE
:10135000746F20436F6E66696775726174696F6E32
:101360002E6800504944204175746F74756E652075
:101370006661696C6564212074696D656F757400C0
:1013800020403A006F6B20543A006F6B20423A00C5
:10139000504944204175746F74756E6520666169AB
:1013A0006C6564212054656D706572617475726539
:1013B00020746F6F206869676800204B643A2000D2
:1013C000204B693A2000204B703A200020436C618A
:1013D000737369632050494420002054753A2000FB
:1013E000204B753A2000206D61783A2000206D690D
:1013F0006E3A200020643A200020626961733A202E
:101400000000002100240027002A002D00300033B6
:101410000001010000040107010A0100002200256B
:101420000028002B002E00310034000201000005CE
:101430000108010B01000020002300260029002CD8
:10144000002F003200000100000301060109010520
:10145000050505070508080808020202020A0A082D
:101460000804040404010101010101010103030353
:101470000303030303040707070C0C0C0C0C0C0CF0
:101480000C0202020206060606060606060B0B0BF7
:101490000B0B0B0B0B010210202008081020401032
:1014A0002040800201020108040201010204081028
:1014B0002040808040201008040201800402018046
:1014C000402010080402010804020101020408106F
:1014D00020408001020408102040800000090A0218
:1014E000080B0C0D070603040100000000000000BB
:1014F00000000000000000000000000000000000EC
:101500000000000000000011100F000000000000AB
:1015100000000000000000000000000000000000CB
:1015200000494E46494E4954594E414ECDCCCC3DD2
:101530000AD7233C17B7D13877CC2B329595E624C0
:101540001FB14F0A000020410000C84200401C4665
:1015500020BCBE4CCA1B0E5AAEC59D7494131124F8
:101560001FBECFEFD1E2DEBFCDBF00E00CBF14E065
:10157000A0E0B2E0EEEDF3ED00E00BBF02C007909B
:101580000D92A431B107D9F71CE0A4E1B4E001C089
:101590001D92A33BB107E1F715E1CEE5D5E100E0EF
:1015A00006C022970109FE010BBF0E94E969CC35F4
:1015B000D10780E00807A9F70E94CF5E0C949961DB
:1015C0000C940000EF92FF920F931F93DF93CF9341
:1015D0000F92CDB7DEB77C018B01F701808191813D
:1015E000F80161918F0149830E949D68F701808114
:1015F00091810196918380834981415071F70F90C9
:10160000CF91DF911F910F91FF90EF900895EF928E
:10161000FF920F931F93DF93CF930F92CDB7DEB757
:101620007C018B01F7018081918149830E9495683B
:10163000F80181938F01F701808191810196918357
:1016400080834981415071F70F90CF91DF911F91B5
:101650000F91FF90EF900895EF92FF920F931F93D9
:10166000DF93CF93CDB7DEB768970FB6F894DEBFA0
:101670000FBECDBF8091000290910102A0910202A5
:10168000B0910302898B9A8BAB8BBC8B84E6E82EDE
:10169000F12CFA82E9828E010F5F1F4FC801BE0153
:1016A0006F5E7F4F44E00E94E20AC8016AEB76E079
:1016B00040E10E94E20AC8016AEA76E040E10E9445
:1016C000E20AC8016AEC76E040E10E94E20AC80141
:1016D0006EED76E044E00E94E20AC80162EE76E038
:1016E00044E00E94E20AC8016AED76E044E00E940C
:1016F000E20AC80162EF76E044E00E94E20AC80113
:1017000066EA76E044E00E94E20AC80166EE76E00E
:1017100044E00E94E20AC8016AEE76E044E00E94DA
:10172000E20AC8016EEE76E044E00E94E20AC801D7
:101730006FEA74E04CE00E94E20A84EB90E09C8344
:101740008B8386E490E09E838D838FEF90E0988773
:101750008F8320EF30E03A872987FC86EB869E87CF
:101760008D87C801BE016D5F7F4F42E00E94E20A93
:10177000C801BE016B5F7F4F42E00E94E20AC801D0
:10178000BE01695F7F4F42E00E94E20AC801BE01CC
:10179000675F7F4F42E00E94E20AC801BE01655FB9
:1017A0007F4F42E00E94E20AC801BE01635F7F4FA3
:1017B00042E00E94E20AC8016AEC74E044E00E9440
:1017C000E20AC80161E973E044E00E94E20AC8014C
:1017D00065E973E044E00E94E20AC80169E973E048
:1017E00044E00E94E20A80E290E0988B8F87C80173
:1017F000BE01615F7F4F42E00E94E20A80910402D5
:1018000090910502A0910602B09107028D8B9E8BEC
:10181000AF8BB88FFA82E982C801BE016B5E7F4F41
:1018200044E00E94E20AEFE2F1E007C09091C000BC
:1018300095FFFCCF8093C600319684918823B1F741
:10184000E9E3F3E007C09091C00095FFFCCF8093DF
:10185000C600319684918823B1F78091C00085FF3E
:10186000FCCF8AE08093C60068960FB6F894DEBF7E
:101870000FBECDBFCF91DF911F910F91FF90EF90E1
:101880000895CF93DF93CFE2D1E0FE0107C090919E
:10189000C00095FFFCCF8093C600319684918823C9
:1018A000B1F7E9E2F3E007C09091C00095FFFCCFEB
:1018B0008093C600319684918823B1F78091C0004F
:1018C00085FFFCCF8AE08093C600FE018491EFE2A1
:1018D000F1E008C09091C00095FFFCCF8093C60056
:1018E000319684918823B1F74091BA065091BB0696
:1018F0006091BC067091BD0681E293E00E943815AC
:101900004091BE065091BF066091C0067091C1061D
:101910008EE193E00E9438154091C2065091C306B3
:101920006091C4067091C5068BE193E00E94381562
:101930004091C6065091C7066091C8067091C906CD
:1019400088E193E00E9438158091C00085FFFCCFAC
:101950008AE08093C600FE018491EFE2F1E008C0C6
:101960009091C00095FFFCCF8093C6003196849182
:101970008823B1F7EEEFF2E007C09091C00095FF29
:10198000FCCF8093C600319684918823B1F7809173
:10199000C00085FFFCCF8AE08093C600FE018491E1
:1019A000EFE2F1E008C09091C00095FFFCCF80937A
:1019B000C600319684918823B1F74091AA065091D0
:1019C000AB066091AC067091AD0685EF92E00E9487
:1019D00038154091AE065091AF066091B0067091F7
:1019E000B10682EF92E00E9438154091B206509104
:1019F000B3066091B4067091B5068FEE92E00E9436
:101A000038154091B6065091B7066091B8067091AE
:101A1000B9068CEE92E00E9438158091C00085FFD7
:101A2000FCCF8AE08093C600FE018491EFE2F1E0F2
:101A300008C09091C00095FFFCCF8093C6003196FE
:101A400084918823B1F7EEECF2E007C09091C000DA
:101A500095FFFCCF8093C600319684918823B1F71F
:101A60008091C00085FFFCCF8AE08093C600FE0114
:101A70008491EFE2F1E008C09091C00095FFFCCFA7
:101A80008093C600319684918823B1F74091CA06AD
:101A90005091CB066091CC067091CD0685EC92E01A
:101AA0000E944B154091CE065091CF066091D00612
:101AB0007091D10682EC92E00E944B154091D206C3
:101AC0005091D3066091D4067091D5068FEB92E0C9
:101AD0000E944B154091D6065091D7066091D806CA
:101AE0007091D9068CEB92E00E944B158091C0005A
:101AF00085FFFCCF8AE08093C600FE018491EFE26F
:101B0000F1E008C09091C00095FFFCCF8093C60023
:101B1000319684918823B1F7E7E8F2E007C090910D
:101B2000C00095FFFCCF8093C60031968491882336
:101B3000B1F78091C00085FFFCCF8AE08093C6009A
:101B4000FE018491EFE2F1E008C09091C00095FFA2
:101B5000FCCF8093C600319684918823B1F74091E1
:101B6000DE065091DF066091E0067091E1068EE797
:101B700092E00E9438154091E2065091E306609190
:101B8000E4067091E5068BE792E00E94381580919B
:101B9000C00085FFFCCF8AE08093C600FE018491DF
:101BA000EFE2F1E008C09091C00095FFFCCF809378
:101BB000C600319684918823B1F7E8ECF1E007C0C4
:101BC0009091C00095FFFCCF8093C6003196849120
:101BD0008823B1F78091C00085FFFCCF8AE0809315
:101BE000C600FE018491EFE2F1E008C09091C000D0
:101BF00095FFFCCF8093C600319684918823B1F77E
:101C00004091DA065091DB066091DC067091DD06AA
:101C10008FEB91E00E9438154091F2065091F30647
:101C20006091F4067091F5068CEB91E00E943815F6
:101C30004091A6065091A7066091A8067091A9064A
:101C400089EB91E00E944B154091E6065091E70622
:101C50006091E8067091E90686EB91E00E943815E4
:101C60004091EA065091EB066091EC067091ED060A
:101C700083EB91E00E9438154091EE065091EF06FB
:101C80006091F0067091F10680EB91E00E943815AA
:101C90008091C00085FFFCCF8AE08093C600FE01E2
:101CA0008491EFE2F1E008C09091C00095FFFCCF75
:101CB0008093C600319684918823B1F7EEE9F1E074
:101CC00007C09091C00095FFFCCF8093C60031966D
:101CD00084918823B1F78091C00085FFFCCF8AE012
:101CE0008093C600FE018491EFE2F1E008C090917C
:101CF000C00095FFFCCF8093C60031968491882365
:101D0000B1F74091AF045091B0046091B10470916B
:101D1000B20485E991E00E9438154091B3045091D6
:101D2000B4046091B5047091B60482E991E00E9418
:101D300038154091B7045091B8046091B90470917E
:101D4000BA048FE891E00E9438158091C00085FFA9
:101D5000FCCF8AE08093C600FE018491EFE2F1E0BF
:101D600008C09091C00095FFFCCF8093C6003196CB
:101D700084918823B1F7E1E8F1E007C09091C000B9
:101D800095FFFCCF8093C600319684918823B1F7EC
:101D90008091C00085FFFCCF8AE08093C600FE01E1
:101DA0008491EFE2F1E008C09091C00095FFFCCF74
:101DB0008093C600319684918823B1F740919103B6
:101DC00050919203609193037091940387E791E09F
:101DD0000E94381560919503709196038091970346
:101DE000909198030E94E05BAB01BC0184E791E015
:101DF0000E9438156091990370919A0380919B031A
:101E000090919C030E94EE5BAB01BC0181E791E0E5
:101E10000E9438158091C00085FFFCCF8AE0809336
:101E2000C600DF91CF910895AF92BF92CF92DF921B
:101E3000EF92FF920F931F93DF93CF93CDB7DEB74F
:101E4000E0970FB6F894DEBF0FBECDBFDE0111964E
:101E5000E7ECF3E080E101900D928150E1F7DE01C3
:101E60005196E7EBF3E080E101900D928150E1F7AC
:101E7000DE019196E7EAF3E080E101900D92815056
:101E8000E1F7BE016F5F7F4F4AEB56E031E1A32ED1
:101E9000B12CAC0EBD1E0AEA16E021E2E22EF12CB6
:101EA000EC0EFD1E9AECC92E96E0D92E24E030E00F
:101EB000FB0181919191A191B191BF01FA018193AF
:101EC0009193A193B193AF01F50181919191A1916A
:101ED000B1915F01F80181939193A193B1938F0127
:101EE000F70181919191A191B1917F01F6018193C7
:101EF0009193A193B1936F0121503040C9F60E9494
:101F0000604680E098E4A9E1B6E48093DE06909311
:101F1000DF06A093E006B093E1068093E20690937B
:101F2000E306A093E406B093E50680E090E0DC01D0
:101F30008093DA069093DB06A093DC06B093DD066F
:101F400020E23EE440E050E02093A6063093A7064E
:101F50004093A8065093A9068093F2069093F30647
:101F6000A093F406B093F50620E030E040EA50E498
:101F70002093E6063093E7064093E8065093E9067F
:101F80002093EA063093EB064093EC065093ED065F
:101F90002093EE063093EF064093F0065093F1063F
:101FA0008093B7049093B804A093B904B093BA0493
:101FB0008093B3049093B404A093B504B093B60493
:101FC0008093AF049093B004A093B104B093B20493
:101FD00081EE9AE7ACEFB0E4809391039093920383
:101FE000A0939303B09394036CE57FE882EC9EE3A7
:101FF0000E94D95B60939503709396038093970337
:10200000909398036AE077ED82E292E40E94E75BA6
:102010006093990370939A0380939B0390939C031E
:102020000E941F5180E090E0A0E8BFE380939D03F1
:1020300090939E03A0939F03B093A003EFE2F1E07F
:1020400007C09091C00095FFFCCF8093C6003196E9
:1020500084918823B1F7E5E3F1E007C09091C000D7
:1020600095FFFCCF8093C600319684918823B1F709
:102070008091C00085FFFCCF8AE08093C600E09687
:102080000FB6F894DEBF0FBECDBFCF91DF911F9189
:102090000F91FF90EF90DF90CF90BF90AF90089599
:1020A000EF92FF920F931F93DF93CF93CDB7DEB7DD
:1020B00068970FB6F894DEBF0FBECDBF84E690E000
:1020C0009A8389838091040290910502A09106026F
:1020D000B09107028D8B9E8BAF8BB88F41E1E42EC0
:1020E000F12CEC0EFD1E8E010F5F1F4FC801B701D2
:1020F00044E00E94070BCE014596B70143E050E053
:102100000E94EA61009709F0B7C0C8016AEB76E067
:1021100040E10E94070BC8016AEA76E040E10E94B4
:10212000070BC8016AEC76E040E10E94070B0E94B1
:102130006046C8016EED76E044E00E94070BC801DE
:1021400062EE76E044E00E94070BC8016AED76E09B
:1021500044E00E94070BC80162EF76E044E00E9471
:10216000070BC80166EA76E044E00E94070BC8014D
:1021700066EE76E044E00E94070BC8016AEE76E066
:1021800044E00E94070BC8016EEE76E044E00E9436
:10219000070BC8016FEA74E04CE00E94070BC8010E
:1021A000BE016D5F7F4F42E00E94070BC801BE0178
:1021B0006B5F7F4F42E00E94070BC801BE01695F61
:1021C0007F4F42E00E94070BC801BE01675F7F4F4F
:1021D00042E00E94070BC801BE01655F7F4F42E0ED
:1021E0000E94070BC801BE01635F7F4F42E00E945F
:1021F000070BC8016AEC74E044E00E94070BC801B9
:1022000061E973E044E00E94070BC80165E973E0EF
:1022100044E00E94070BC80169E973E044E00E94B2
:10222000070BC801BE01615F7F4F42E00E94070BB0
:102230000E941F51EFE2F1E007C09091C00095FFAE
:10224000FCCF8093C600319684918823B1F7E7E5EF
:10225000F1E007C09091C00095FFFCCF8093C600CD
:10226000319684918823B1F78091C00085FFFCCF1F
:102270008AE08093C60002C00E94140F68960FB6D1
:10228000F894DEBF0FBECDBFCF91DF911F910F91AC
:10229000FF90EF9008951F920F920FB60F920BB61A
:1022A0000F9211242F933F934F935F936F938F93CC
:1022B0009F93EF93FF936091C60020919404309117
:1022C0009504C90101968F779070409196045091C2
:1022D00097048417950741F02C5E3B4FF90160830A
:1022E0009093950480939404FF91EF919F918F9127
:1022F0006F915F914F913F912F910F900BBE0F9077
:102300000FBE0F901F9018959A01AB01203081EEFF
:10231000380780E0480780E0580749F182E0809361
:10232000C00060E079E08DE390E00E94CE6921502A
:10233000304040405040CA01B90122E030E040E066
:1023400050E00E94CE693093C5002093C400809174
:10235000C10080618093C1008091C100886080933A
:10236000C1008091C10080688093C10008951092DF
:10237000C00020E130E0E7CF80919604909197046F
:1023800020919404309195042817390769F0FC01D5
:10239000EC5EFB4F208101968F77907090939704AD
:1023A0008093960430E002C02FEF3FEFC9010895FB
:1023B000809196049091970490939504809394044F
:1023C00008956F927F928F929F92AF92BF92CF9219
:1023D000DF92EF92FF920F931F93DF93CF93CDB7CE
:1023E000DEB7A0970FB6F894DEBF0FBECDBF5C017D
:1023F000CB01BA01611571058105910551F4C50143
:1024000040E350E060E070E020E030E00E947B12AA
:1024100048C06E010894C11CD11CEE24FF24870122
:10242000622E772488249924A40193010E94AC6928
:10243000F60161936F010894E11CF11C011D111D4F
:10244000B901CA01611571058105910569F7D801C6
:10245000C7010197A109B1096E010894C11CD11CE3
:10246000C80ED91E19C0F60140814A3010F4405DF3
:1024700001C0495C552747FD5095652F752FC50153
:1024800020E030E00E947B120894E108F108010985
:1024900011090894C108D108E114F10401051105DE
:1024A00011F7A0960FB6F894DEBF0FBECDBFCF9147
:1024B000DF911F910F91FF90EF90DF90CF90BF9031
:1024C000AF909F908F907F906F9008952115310568
:1024D00039F48091C00085FFFCCF4093C600089579
:1024E0000E94E11108959A01462F50E060E070E0EB
:1024F0000E9466120895EF92FF920F931F93CF935D
:10250000DF93EC017A018B012115310539F48091BB
:10251000C00085FFFCCFE092C6001BC02A30310509
:10252000B1F477FF10C04DE250E060E070E020E0D1
:1025300030E00E947B1210950095F094E094E11C2D
:10254000F11C011D111DCE01B801A7012AE00E9456
:10255000E111DF91CF911F910F91FF90EF900895BE
:102560009A01FB01AF01662757FD6095762F0E9407
:102570007B120895CF93DF93EC014DE050E060E0D3
:1025800070E020E030E00E947B12CE014AE050E093
:1025900060E070E020E030E00E947B12DF91CF919C
:1025A0000895CF93DF93EC019A01AB0160E070E0F6
:1025B0000E946612CE010E94BA12DF91CF91089557
:1025C0009F92AF92BF92CF92DF92EF92FF920F93C2
:1025D0001F93CF93DF93EC017A018B01D22ECB01B5
:1025E000BA0120E030E0A9010E94026387FF0DC01C
:1025F000CE014DE250E060E070E020E030E00E946B
:102600007B1217FB109517F91095CC2450E040E091
:1026100030E02FE311C0DA01F9016B2F742F8F2FF7
:10262000922F20E030E040E251E40E940963562FEF
:10263000472F382F292FC394CD1468F3C801B70151
:10264000DA01F9012B2F342F4F2F5E2F0E942962C0
:102650005B01E82E192F7B2D0E947663062FF72E43
:10266000C82E992E0E94A2639B01AC016A2D7B2D7E
:102670008E2D912F0E9428625B01E82E192FCE012A
:10268000402F5F2D6C2D792D2AE030E00E946612DC
:10269000DD20C9F1E8E0F2E006C09091C00095FFAE
:1026A000FCCF8093C60081918823B9F72CC06A2D96
:1026B0007B2D8E2D912F20E030E040E251E40E94EE
:1026C000D765C62EB72EA82E992E0E9471637B0166
:1026D0000027F7FC0095102FCE01B801A7012AE0D2
:1026E00030E00E947B12C801B7010E94A4639B01E5
:1026F000AC016C2D7B2D8A2D992D0E9428625B01E7
:10270000E82E192FDA94DD2091F6DF91CF911F91F9
:102710000F91FF90EF90DF90CF90BF90AF909F9080
:1027200008950E94E01208950895FC0125913591C5
:1027300045915491622F732F842F952F08952F92D6
:102740003F924F925F926F927F928F929F92AF9241
:10275000BF92CF92DF92EF92FF920F931F93DF937E
:10276000CF93CDB7DEB728970FB6F894DEBF0FBE74
:10277000CDBF9A8389838330910508F060C1FC0145
:10278000E758F94FD490880F991F880F991F9887A1
:102790008F8381569B4F9C838B8380E090E0DC018C
:1027A000EB81FC8180839183A283B3838FE994E0E2
:1027B00063EA74E047EA54E02BEA34E00E948B4578
:1027C0008F8198858458994F0E9495137B018C01C5
:1027D0006D2D772767FD7095882777FD8095982F59
:1027E0000E94A4632B013C01FBEF2F2EF4E03F2E4F
:1027F0002F813885220E331EC801B70120E030E05A
:1028000040EC5FE30E94D765A30192010E94D76567
:10281000D1016D937D938D939C931397EF81F885F0
:10282000E45BFC4FFE83ED83608171818281938143
:1028300060937703709378038093790390937A037E
:1028400020E030E040E752E40E9409637B018C0104
:102850008BEF94E06FEF74E043E055E027E035E064
:10286000EEECCE2EE4E0DE2E0E94DD390E94FF4E1B
:1028700080E090E0DC01EB81FC8180839183A28386
:10288000B3838FE994E063EA74E047EA54E02BEA0B
:1028900034E00E948B458F8198858857994F0E941C
:1028A00095134B015C019058A30192010E94D765DA
:1028B000D1016D937D938D939C93139760917703D2
:1028C000709178038091790390917A0320E030E051
:1028D00040E752E40E9409637B018C018BEF94E096
:1028E0006FEF74E043E055E027E035E00E94DD390A
:1028F0000E94FF4EC501B401A50194010E94296206
:10290000A30192010E94D765F101608371838283E4
:102910009383AD81BE816D917D918D919C9120E0DD
:1029200030E040E05FE30E94D765262F372F482F25
:10293000592F209377033093780340937903509372
:102940007A0320E030E040E752E40E9409637B0113
:102950008C018BEF94E06FEF74E043E055E027E0EB
:1029600035E00E94DD390E94FF4E8F8198858C569C
:10297000994F0E949513EF81F885E155FB4FE08058
:10298000F18002811381A80197010E942962862E9D
:10299000D72EC82E492E862F9D2DAC2DB42DEB8120
:1029A000FC8180839183A283B3838F819885805635
:1029B000994F0E9495132BEBA22E24E0B22E2F816B
:1029C0003885A20EB31EA80197010E942962D50185
:1029D0006D937D938D939C9313978F8198858455E8
:1029E000994F0E949513AF80B884E6E6F3E0AE0EEF
:1029F000BF1EA80197010E942962D5016D937D93A6
:102A00008D939C931397882D9D2DAC2DB42DF101A2
:102A100080839183A283B38380E090E0DC01809384
:102A2000770390937803A0937903B0937A030E947D
:102A30002847E981FA81E953FB4F81E0808328969A
:102A40000FB6F894DEBF0FBECDBFCF91DF911F91BF
:102A50000F91FF90EF90DF90CF90BF90AF909F903D
:102A60008F907F906F905F904F903F902F90089540
:102A7000FC0107C09091C00095FFFCCF8093C60079
:102A8000319684918823B1F788E994E022E030E020
:102A90000E9491130895FC0107C09091C00095FF1A
:102AA000FCCF8093C600319684918823B1F788E9E2
:102AB00094E02AE030E00E9466120895DF93CF93FD
:102AC0000F920F92CDB7DEB78091AD0C9091AE0C06
:102AD0009E012F5F3F4F009719F4235B3C4002C0DB
:102AE000281B390B3A83298389819A810F900F9093
:102AF000CF91DF9108958EE260E00E94495E9FB71A
:102B0000F894EBE0F1E08081886080839FBF0895B6
:102B1000EAE0F1E08081806180839FB7F894EBE088
:102B2000F1E080818F7E80839FBF08950E947B1596
:102B30000E94881588E994E040E054E863E070E082
:102B40000E948411EDEBF8E007C09091C00095FF62
:102B5000FCCF8093C600319684918823B1F7809191
:102B6000C00085FFFCCF8AE08093C60089E493E033
:102B7000FC0107C03091C00035FFFCCF2093C60098
:102B8000319624912223B1F724B720FF14C0E5EB3E
:102B9000F8E007C04091C00045FFFCCF3093C6006D
:102BA000319634913323B1F73091C00035FFFCCF1B
:102BB0003AE03093C60021FF14C0E5EAF8E007C010
:102BC0004091C00045FFFCCF3093C6003196349150
:102BD0003323B1F73091C00035FFFCCF3AE030939A
:102BE000C60022FF14C0E4E9F8E007C04091C0002D
:102BF00045FFFCCF3093C600319634913323B1F7B3
:102C00003091C00035FFFCCF3AE03093C60023FF7F
:102C100014C0E4E8F8E007C04091C00045FFFCCFD5
:102C20003093C600319634913323B1F73091C00010
:102C300035FFFCCF3AE03093C60025FF14C0E4E72F
:102C4000F8E007C03091C00035FFFCCF2093C600EC
:102C5000319624912223B1F72091C00025FFFCCFAB
:102C60002AE02093C60014BEEDE6F8E007C03091DC
:102C7000C00035FFFCCF2093C6003196249122235B
:102C8000B1F7E7E6F8E007C03091C00035FFFCCFB0
:102C90002093C600319624912223B1F72091C000E1
:102CA00025FFFCCF2AE02093C600FC012491E9E433
:102CB000F3E008C03091C00035FFFCCF2093C60080
:102CC000319624912223B1F7E7E5F8E007C030916F
:102CD000C00035FFFCCF2093C600319624912223FB
:102CE000B1F7E2E4F8E007C03091C00035FFFCCF57
:102CF0002093C600319624912223B1F7E6E3F8E051
:102D000007C03091C00035FFFCCF2093C60031963C
:102D100024912223B1F7E9E1F8E007C03091C00027
:102D200035FFFCCF2093C600319624912223B1F7C2
:102D30002091C00025FFFCCF2AE02093C600EEE0E2
:102D4000F8E007C03091C00035FFFCCF2093C600EB
:102D5000319624912223B1F7E2E0F8E007C03091E8
:102D6000C00035FFFCCF2093C6003196249122236A
:102D7000B1F72091C00025FFFCCF2AE02093C600C8
:102D8000FC018491E9E4F3E008C09091C00095FF54
:102D9000FCCF8093C600319684918823B1F7E3EF8E
:102DA000F7E007C09091C00095FFFCCF8093C6006C
:102DB000319684918823B1F70E945E15BC0188E9A1
:102DC00094E04AE050E00E94B012ECEDF7E007C05A
:102DD0009091C00095FFFCCF8093C60031968491FE
:102DE0008823B1F788E994E060ED74E04AE050E0B0
:102DF0000E94B0128091C00085FFFCCF8AE08093D2
:102E0000C60010929E0610929F061092A006109285
:102E1000A1060E9450100E94D5530E941E380E94A5
:102E2000694E8FEF93EDA0E381509040A040E1F711
:102E300000C0000008958091140590911505019639
:102E400060E070E00E94DE5E08958091140590912C
:102E50001505019660E070E04AE050E00E946C6069
:102E60000895609116057091170540E650E0649F43
:102E70009001659F300D749F300D1124682F7727C6
:102E800067FD7095C901885E9A4F0E94D6619C01CA
:102E9000909315058093140581E02115310509F4FF
:102EA00080E008950E943D5C6093E7047093E8041D
:102EB0008093E9049093EA04E2EAF4E007C0909179
:102EC000C00095FFFCCF8093C60031968491882383
:102ED000B1F78091C00085FFFCCF8AE08093C600E7
:102EE000089588E994E00E94D811E5EAF4E007C06B
:102EF0009091C00095FFFCCF8093C60031968491DD
:102F00008823B1F74091DD045091DE046091DF0425
:102F10007091E0044F5F5F4F6F4F7F4F88E994E0FF
:102F20002AE030E00E947B128091C00085FFFCCF38
:102F30008AE08093C6000E94521708958F929F9254
:102F4000AF92BF92CF92DF92EF92FF920F931F93B7
:102F5000CF93DF9317EDE12E13E0F12ECFE9D4E00C
:102F60000BEF14E0B9E9CB2EB4E0DB2EF701819131
:102F70007F010E943117882329F10E941B174B0102
:102F80005C01F6018081882319F460910B0501C072
:102F900061E070E0882777FD8095982F0E94A463F8
:102FA000288139814A815B810E94D7659B01AC01F0
:102FB000C501B4010E942962F80160837183828394
:102FC000938309C088819981AA81BB81F80180839C
:102FD0009183A283B38324960C5F1F4F0894C11C76
:102FE000D11CFBEDEF16F3E0FF0609F0BFCF86E43E
:102FF0000E9431178823D9F00E941B177B018C0196
:1030000060930C0570930D0580930E0590930F054A
:1030100020E030E0A9010E940565181644F4E09212
:103020007703F09278030093790310937A03DF918A
:10303000CF911F910F91FF90EF90DF90CF90BF90B5
:10304000AF909F908F9008950E949E1789E40E94F0
:103050003117882359F00E941B176093EF04709377
:10306000F0048093F1049093F2040BC080E090E0B0
:10307000DC018093EF049093F004A093F104B093EB
:10308000F2048AE40E943117882359F00E941B172A
:103090006093F3047093F4048093F5049093F60422
:1030A000089580E090E0DC018093F3049093F404B1
:1030B000A093F504B093F6040895EF92FF920F9356
:1030C0001F93CF93DF93EC01E090BB04F090BC041E
:1030D0000091BD041091BE04688179818A819B8131
:1030E000A80197010E94026387FF04C0E882F98269
:1030F0000A831B83E090BF04F090C0040091C104D8
:103100001091C2046C817D818E819F81A8019701FD
:103110000E94026387FF04C0EC82FD820E831F833E
:10312000E090C304F090C4040091C5041091C6045B
:10313000688579858A859B85A80197010E9402632D
:1031400087FF04C0E886F9860A871B87E09066033C
:10315000F090670300916803109169036881798199
:103160008A819B81A80197010E940565181624F4A5
:10317000E882F9820A831B83E0906A03F0906B0374
:1031800000916C0310916D036C817D818E819F8114
:10319000A80197010E940565181624F4EC82FD82AF
:1031A0000E831F83E0906E03F0906F030091700315
:1031B00010917103688579858A859B85A80197019F
:1031C0000E940565181624F4E886F9860A871B878D
:1031D000DF91CF911F910F91FF90EF900895CF92C3
:1031E000DF92EF92FF920F931F938BEF94E00E9478
:1031F0005D180E943D5C6093E7047093E80480933F
:10320000E9049093EA0460919F047091A004809176
:10321000A1049091A2042091FB043091FC04409100
:10322000FD045091FE040E940263882309F07AC0D5
:103230006091A3047091A4048091A5049091A604C8
:103240002091FF0430910005409101055091020545
:103250000E940263882309F065C060917703709132
:1032600078038091790390917A0320E030E040E781
:1032700052E40E9409637B018C018BEF94E06FEFB5
:1032800074E043E055E027E035E0EEECCE2EE4E0DC
:10329000DE2E0E94DD398091FB049091FC04A09108
:1032A000FD04B091FE0480939F049093A004A0932A
:1032B000A104B093A2048091FF0490910005A09115
:1032C0000105B09102058093A3049093A404A093F8
:1032D000A504B093A6048091030590910405A091E4
:1032E0000505B09106058093A7049093A804A093C8
:1032F000A904B093AA048091070590910805A091B4
:103300000905B0910A058093AB049093AC04A09397
:10331000AD04B093AE041F910F91FF90EF90DF903A
:10332000CF90089560915C0370915D03882777FDCD
:103330008095982F0E94A4632091770330917803A1
:103340004091790350917A030E94D76520E030E0E4
:1033500040E752E40E94096320E030E048EC52E488
:1033600088CF9F92AF92BF92CF92DF92EF92FF925F
:103370000F931F93CF93DF93982E6091EF0470917A
:10338000F0048091F1049091F2042091F3043091C3
:10339000F4044091F5045091F6040E9412657B01FB
:1033A0008C0100D000D0CDB7DEB7219660915C03D0
:1033B00070915D03882777FD8095982F0E94A46304
:1033C00020917703309178034091790350917A03EB
:1033D0000E94D76520E030E040E752E40E94096394
:1033E00020E030E048EC52E40E9409635B016C018C
:1033F000E882F9820A831B839C828091CE048D83AC
:103400008FE994E06BEF74E04FEE54E020E001E0D0
:10341000F2E0EF2E0E94BE2F8091FB049091FC04FD
:10342000A091FD04B091FE0480939F049093A004AA
:10343000A093A104B093A2048091FF049091000591
:10344000A0910105B09102058093A3049093A40478
:10345000A093A504B093A604809103059091040560
:10346000A0910505B09106058093A7049093A80448
:10347000A093A904B093AA04809107059091080530
:10348000A0910905B0910A058093AB049093AC0418
:10349000A093AD04B093AE048DB79EB706960FB659
:1034A000F8949EBF0FBE8DBF0E943D5C6093E70401
:1034B0007093E8048093E9049093EA04DF91CF913C
:1034C0001F910F91FF90EF90DF90CF90BF90AF9042
:1034D0009F900895F8940E9481549FB7F89480912A
:1034E0000B01826080930B019FBF1092C704899AE1
:1034F000A29A1092C8049FB7F89480910801816045
:10350000809308019FBF1092C904129A8DE260E077
:103510000E94495EEFE4F3E007C09091C00095FF80
:10352000FCCF8093C600319684918823B1F7ECECF0
:10353000F3E007C09091C00095FFFCCF8093C600D8
:10354000319684918823B1F78091C00085FFFCCF2C
:103550008AE08093C600FFCF4F925F926F927F9276
:103560008F929F92AF92BF92CF92DF92EF92FF9293
:103570000F931F93CF93DF9300E6C02ED12C14E05E
:10358000612E712CB1E0AB2EB12CE8EBF6E084900B
:10359000AAE09A2EEEE2F7E05490442443941BC232
:1035A0008D3071F08A3321F490919906992341F07E
:1035B00020919A0630919B062F3531050CF4EDC110
:1035C000E0919A06F0919B06309719F410929906B3
:1035D00039C280919C0690919D068C9DE0018D9D45
:1035E000D00D9C9DD00D1124EC0FFD1FE85EFA4F0D
:1035F000108220919906222309F0CAC110929906DF
:103600008256994FFC0110828E01085E1A4FC80144
:103610006EE470E00E94D661009709F4FCC09093BC
:103620001505809314059501201B310B280F391FB8
:103630002C0F3D1FC901885E9A4F60E070E04AE0A0
:1036400050E00E946C606093A2067093A306809382
:10365000A4069093A506E090DD04F090DE040091AE
:10366000DF041091E004A80197012F5F3F4F4F4FF7
:103670005F4F621773078407950709F4CBC1209148
:103680009C0630919D062C9DC0012D9D900D3C9D6A
:10369000900D1124885E9A4F67ED77E00E94BC611F
:1036A000009709F0B7C1EFE4F3E007C09091C000C4
:1036B00095FFFCCF8093C600319684918823B1F7A3
:1036C000E4EAF7E007C09091C00095FFFCCF80933B
:1036D000C600319684918823B1F788E994E0B80157
:1036E000A7012AE030E00E947B128091C00085FF94
:1036F000FCCF7AC003272F5FFE01E20FF11DE85EC9
:10370000FA4F30813A32B1F7909315058093140542
:103710009E01285E3A4FA501421B530B9A01280FC8
:10372000391F2C0F3D1FC901885E9A4F60E070E081
:103730000E94DE5E0E94716310E00617170709F40D
:1037400059C0EFE4F3E007C09091C00095FFFCCFB3
:103750008093C600319684918823B1F7E5E8F7E0BD
:1037600007C09091C00095FFFCCF8093C6003196B2
:1037700084918823B1F74091DD045091DE0460917B
:10378000DF047091E00488E994E02AE030E00E94D0
:103790007B128091C00085FFFCCF26C0EFE4F3E0F0
:1037A00007C09091C00095FFFCCF8093C600319672
:1037B00084918823B1F7EBE5F7E007C09091C00052
:1037C00095FFFCCF8093C600319684918823B1F792
:1037D00088E994E0B801A7012AE030E00E947B125A
:1037E0008091C00085FFFCCF8AE08093C6000E94D4
:1037F000711747C08091A2069091A306A091A406DC
:10380000B091A5068093DD049093DE04A093DF04BD
:10381000B093E0043BC0C8016AE270E00E94D66148
:103820000097A1F1EFE4F3E007C09091C00095FF8D
:10383000FCCF8093C600319684918823B1F7E1E3F1
:10384000F7E007C09091C00095FFFCCF8093C600C1
:10385000319684918823B1F74091DD045091DE04C4
:103860006091DF047091E00488E994E02AE030E0A0
:103870000E947B128091C00085FFFCCF8AE080937C
:10388000C60010929B0610929A06DCC080919C069E
:1038900090919D068C9D80018D9D100D9C9D100D1D
:1038A0001124E801C85EDA4FCE0167E470E00E949F
:1038B000D661009709F442C09093150580931405D2
:1038C00095012C1B3D0B280F391F200F311FC901FB
:1038D000885E9A4F60E070E00E94DE5E0E94716335
:1038E0006430710558F58091DA04882399F4852DA8
:1038F000EEE2F7E008C09091C00095FFFCCF809306
:10390000C600319684918823B1F78091C00085FF6D
:10391000FCCF12C0882DE8EBF6E008C09091C00003
:1039200095FFFCCF8093C600319684918823B1F730
:103930008091C00085FFFCCF9092C60020919C062C
:1039400030919D062C9DC0012D9D900D3C9D900DAC
:103950001124885E9A4F6AE072E00E94E16100974C
:1039600011F40E946A1A80919C0690919D0601961E
:10397000B3010E94996990939D0680939C06809163
:10398000E5049091E60401969093E6048093E504A3
:1039900010929B0610929A061EC08B3311F440922F
:1039A0009906909199069923B1F440919C06509103
:1039B0009D064C9DF0014D9DF00D5C9DF00D112478
:1039C000E20FF31FE85EFA4F80832F5F3F4F309383
:1039D0009B0620939A0680919404909195042091DF
:1039E000960430919704821B930B8F779070009709
:1039F00049F18091E5049091E6048430910514F535
:103A000088E994E00E94BC11809398068A3009F0FE
:103A1000C7CDD6CD80919C0690919D068C9DE001EE
:103A20008D9DD00D9C9DD00D1124CE01885E9A4FA6
:103A30006AE270E00E94D661009709F4AFCE20E000
:103A400000E05ACEDF91CF911F910F91FF90EF9040
:103A5000DF90CF90BF90AF909F908F907F906F90AE
:103A60005F904F900895EF92FF920F931F93809174
:103A7000E5049091E6048330910514F40E94AC1A99
:103A80000E943D5C2091EB043091EC044091ED04E8
:103A90005091EE04E090E704F090E8040091E9040E
:103AA0001091EA046E197F09800B910B26173707D6
:103AB0004807590738F4211531054105510511F022
:103AC0000E946A1A8091730390917403A091750308
:103AD000B09176030097A105B105D1F10E943D5C3C
:103AE0002091E7043091E8044091E9045091EA0400
:103AF000621B730B840B950B20917303309174033D
:103B000040917503509176032617370748075907E8
:103B1000F8F49091EA0B8091EB0B9817C9F49FB7DA
:103B2000F89480910B01826080930B019FBF1092EB
:103B3000C704899AA29A1092C8049FB7F8948091FA
:103B400008018160809308019FBF1092C904129AF6
:103B50008091090183FD02C00E946A1A0E949D396A
:103B60001F910F91FF90EF9008950E9481548091D2
:103B7000DA048823A1F581E08093DA048091DD04E2
:103B80009091DE04A091DF04B091E0048093E10401
:103B90009093E204A093E304B093E404EFE4F3E031
:103BA00007C09091C00095FFFCCF8093C60031966E
:103BB00084918823B1F7E6E5F3E007C09091C00057
:103BC00095FFFCCF8093C600319684918823B1F78E
:103BD0008091C00085FFFCCF8AE08093C6000895E5
:103BE0008091DA040895CF93DF93EC018091CE04A5
:103BF0008093DC0484E50E943117882309F47AC09D
:103C00000E941B170E9476636093DC04662309F40C
:103C100071C0E9E4F3E007C09091C00095FFFCCFCC
:103C20008093C600319684918823B1F7CD36D105B3
:103C3000C1F0CE36D10544F4C836D105C1F0C9363D
:103C4000D10509F048C010C0CA3DD10539F0CD3DBD
:103C5000D10509F040C0EFE0F2E03AC0E6E2F2E060
:103C60002DC0EDE3F2E020C0E4E5F2E013C0EBE6A6
:103C7000F2E006C09091C00095FFFCCF8093C60093
:103C800081918823B9F727C09091C00095FFFCCFA0
:103C90008093C60081918823B9F71DC09091C00020
:103CA00095FFFCCF8093C60081918823B9F713C09C
:103CB0009091C00095FFFCCF8093C600819188232E
:103CC000B9F709C09091C00095FFFCCF8093C60062
:103CD00081918823B9F788E994E040E050E00E94A0
:103CE00073128091C00085FFFCCF8AE08093C600EC
:103CF00081E001C080E0DF91CF9108952F923F9243
:103D00004F925F926F927F928F929F92AF92BF92EB
:103D1000CF92DF92EF92FF920F931F93DF93CF9397
:103D2000CDB7DEB7A1970FB6F894DEBF0FBECDBFFB
:103D300087E40E943117882309F42CC20E941B17C4
:103D40000E9471636430710509F447C065307105E4
:103D500054F46230710551F1633071058CF577FFD1
:103D600019C00C94562F6A35710509F4BEC16B3524
:103D7000710534F46C31710511F00C94562F73C039
:103D80006B35710509F4B5C16C35710511F00C94F2
:103D9000562FB4C18091DA04882311F00C94562F69
:103DA0000E949E170E94EF180C94772F8091DA04DE
:103DB000882311F00C94562F0E94241881E009C02A
:103DC0008091DA04882311F00C94562F0E94241855
:103DD00080E00E94B1190C94772F80E50E94311782
:103DE000882349F00E941B170E947663E62EF72E67
:103DF000082F192F03C0EE24FF24870183E50E94BA
:103E00003117882371F00E941B1720E030E04AE749
:103E100054E40E94D7650E947663E62EF72E082FA1
:103E2000192F0E94FF4E0E943D5C5B016C01AE0C9D
:103E3000BF1CC01ED11E0E943D5C6093E7047093BE
:103E4000E8048093E9049093EA0404C00E94795145
:103E50000E94331D0E943D5C6A157B058C059D0503
:103E6000A8F30C94562F8091770390917803A0913A
:103E70007903B0917A038093100590931105A09374
:103E80001205B093130580915C0390915D039093AC
:103E90009E0480939D0484E690E090935D0380935C
:103EA0005C030E943D5C6093E7047093E804809398
:103EB000E9049093EA0481E00E942F4780919F04D7
:103EC0009091A004A091A104B091A2048093FB045E
:103ED0009093FC04A093FD04B093FE048091A3048E
:103EE0009091A404A091A504B091A6048093FF042E
:103EF00090930005A0930105B09302058091A7045B
:103F00009091A804A091A904B091AA0480930305FC
:103F100090930405A0930505B09306058091AB042A
:103F20009091AC04A091AD04B091AE0480930705CC
:103F300090930805A0930905B0930A0580E090E0EE
:103F4000DC018093770390937803A0937903B09377
:103F50007A0388E50E943117882361F489E50E947D
:103F60003117882339F48AE50E943117882311F428
:103F700081E001C080E080937B03882329F488E5F9
:103F80000E943117882321F080E090E00E949F1367
:103F900080917B03882329F489E50E9431178823C7
:103FA00021F081E090E00E949F1388E50E94311784
:103FB0008823D9F00E9425176115710581059105A7
:103FC000A1F00E941B172091AF043091B0044091E2
:103FD000B1045091B2040E94296260939F047093CF
:103FE000A0048093A1049093A20489E50E94311754
:103FF0008823D9F00E942517611571058105910567
:10400000A1F00E941B172091B3043091B404409199
:10401000B5045091B6040E9429626093A304709382
:10402000A4048093A5049093A60480917B03882325
:1040300029F48AE50E943117882321F082E090E07C
:104040000E949F138AE50E9431178823D9F00E94AD
:1040500025176115710581059105A1F00E941B17B7
:104060002091B7043091B8044091B9045091BA043A
:104070000E9429626093A7047093A8048093A90406
:104080009093AA048FE994E063EA74E047EA54E06D
:104090002BEA34E00E948B4580E00E942F478091FC
:1040A000100590911105A0911205B0911305809310
:1040B000770390937803A0937903B0937A03809168
:1040C0009D0490919E0490935D0380935C030E94F5
:1040D0003D5C6093E7047093E8048093E904909357
:1040E000EA040E9428470C94562F10920B050C945A
:1040F000562F81E080930B050C94562F85E40E9487
:104100003117882311F40E94FF4E17EDC12E13E0E2
:10411000D12EBFEAAB2EB4E0BB2E0FE914E0EE24A3
:10412000F60181916F010E943117882339F1FE2D2C
:10413000F33061F40E941B17F8016083718382835E
:1041400093838BEA94E00E94394618C00E941B17A3
:10415000F50120813181428153810E942962F80159
:1041600060837183828393838FE994E063EA74E0D0
:1041700047EA54E02BEA34E00E948B45E39424E0C4
:1041800030E0A20EB31E0C5F1F4F3E2D343041F6BF
:104190000C94562F8DE40E943117882311F40C944F
:1041A000842E0E941B170E9471636837710511F4F9
:1041B0000C94A529693771050CF079C06C3571052F
:1041C00009F43CC76D357105CCF56035710509F40E
:1041D00082C661357105BCF46231710509F4B3C65C
:1041E0006331710534F46131710511F00C94562F6F
:1041F00001C16F31710509F412C16A32710511F004
:104200000C94562FA1C16335710509F497C6643526
:10421000710554F46135710509F46CC66235710598
:1042200011F00C94562F86C66435710509F48BC6BF
:104230006535710511F00C94562FE7C66D36710582
:1042400009F40DC36E367105BCF46936710509F4C5
:10425000F7C16A36710534F46836710511F00C94B3
:10426000562FBAC16A36710509F4FFC56B36710560
:1042700011F00C94562F29C66337710509F469C7EC
:104280006437710554F46037710509F4C4C16237AD
:10429000710511F00C94562F79C76537710509F433
:1042A00066C76737710511F00C94562F9FC06D3D9E
:1042B000710511F40C94FC2B6E3D71050CF041C09E
:1042C000693C710511F40C94142B6A3C7105CCF413
:1042D0006C38710509F4A3C16D3871053CF4693778
:1042E000710511F00C94562F0C94A9296E3B7105A1
:1042F00009F4B6C4683C710511F00C94562F0C9467
:104300009C2A6D3C710511F40C94722B6E3C710566
:1043100064F46B3C710511F40C94352B6C3C710505
:1043200011F00C94562F0C94522B6E3C710511F425
:104330000C94D02B6C3D710511F00C94562F0C94FD
:10434000ED2B81E0643F780711F40C948E2D91E001
:10435000653F79072CF5E1E06E327E0711F40C948D
:104360003C2DF1E06F327F076CF4623E710511F471
:104370000C94232C21E06D32720711F00C94562F0F
:104380000C94762C31E06F32730711F40C944A2DA3
:1043900081E06039780711F00C94562F0C948B2D26
:1043A00091E0673F790711F40C94972DE1E0683FA5
:1043B0007E0774F4F1E0653F7F0711F40C94912DB2
:1043C00021E0663F720711F00C94562F0C94942D47
:1043D00033E06335730711F40C949A2D83E0673E44
:1043E000780711F00C94562F0C946F2EE1E9F2E04F
:1043F0000C94B3299FB7F89480910B018D7F809323
:104400000B019FBF8998A2989FB7F89480910801EB
:104410008E7F809308019FBF12980C94562F0E94A4
:104420003D5C6093D6047093D7048093D804909336
:10443000D9042091D2043091D3044091D4045091F6
:10444000D504621B730B840B950B28EE33E040E020
:1044500050E00E94AC69EDB7FEB738970FB6F894FC
:10446000FEBF0FBEEDBF0DB71EB70F5F1F4FCE01D2
:104470000196928381838AE696E0F8019383828392
:10448000CA01B9012CE330E040E050E00E94AC6981
:10449000F80135832483778366830E94F861E9E419
:1044A000F3E084912DB73EB7285F3F4F0FB6F894E5
:1044B0003EBF0FBE2DBF08C09091C00095FFFCCF3E
:1044C0008093C600319684918823B1F7FE0131961E
:1044D00006C09091C00095FFFCCF8093C6008191EB
:1044E0008823B9F78091C00085FFFCCF8AE08093D4
:1044F000C60080911607882311F40C94562F109251
:1045000016070091CE0410E0000F111F015B134F3E
:10451000F80160817181882777FD8095982F0E942E
:10452000A4632091800330918103409182035091D4
:1045300083030E940565181614F00C94562FF80199
:10454000118210820C94562F83E50E943117882324
:1045500011F40C94562F0E941B170E9471638B015B
:1045600080E50E943117882361F017FD0AC00F3FD4
:10457000110509F034F40E941B170E9471637B013E
:1045800003C0FDE0EF2EF12CEBEDF3E08191919172
:104590008E159F0511F40C94562F24E0E331F20799
:1045A000A9F738E0E316F10429F41093D00400933E
:1045B000CF0404C0F7FE02C00C94562F8E2D61E08C
:1045C0000E94495E8E2D602F0E946D5E8E2DB80177
:1045D0000E94FA5C0C94562F88E690E00E94F31D2E
:1045E000882311F00C94562F83E50E9431178823FD
:1045F00071F00E941B170091DC0410E0000F111FE6
:10460000015B134F0E947163F801718360830E9404
:1046100080540C94562F0E946A1A0C94562F83E5EE
:104620000E943117882311F40C94562F0E941B17F7
:104630000E9471637093520C6093510C0C94562F2E
:1046400089E690E00E94F31D882311F00C94562F08
:10465000E4E6F6E007C09091C00095FFFCCF8093A0
:10466000C600319684918823B1F7E091DC04F0E034
:10467000EE0FFF1FEE0FFF1FEB5AF34F40815181EA
:104680006281738188E994E021E030E00E94911317
:10469000E1E6F6E007C09091C00095FFFCCF809363
:1046A000C600319684918823B1F7E091DC04F0E0F4
:1046B000EE0FFF1FE15BF34F60817181882777FD6B
:1046C0008095982F0E94A463AB01BC0188E994E017
:1046D00021E030E00E949113EDE5F6E007C09091F3
:1046E000C00095FFFCCF8093C6003196849188234B
:1046F000B1F740915B0C50915C0C60915D0C709136
:104700005E0C88E994E021E030E00E949113EAE534
:10471000F6E007C09091C00095FFFCCF8093C600E3
:10472000319684918823B1F76091510C7091520CAD
:10473000882777FD8095982F0E94A463AB01BC0168
:1047400088E994E021E030E00E949113E7E5F6E08B
:1047500007C09091C00095FFFCCF8093C6003196B2
:1047600084918823B1F788E994E060E070E04AE042
:1047700050E00E94B012E5E5F6E007C09091C0005D
:1047800095FFFCCF8093C600319684918823B1F7C2
:104790004091550C5091560C6091570C7091580CEB
:1047A00088E994E021E030E00E949113E2E5F6E030
:1047B00007C09091C00095FFFCCF8093C600319652
:1047C00084918823B1F760914F0C7091500C882729
:1047D00077FD8095982F0E94A463AB01BC0188E906
:1047E00094E021E030E00E949113EEE4F6E007C08F
:1047F0009091C00095FFFCCF8093C60031968491C4
:104800008823B1F78091DC0490E00E943651BC010E
:1048100088E994E04AE050E00E94B012E9E4F6E052
:1048200007C09091C00095FFFCCF8093C6003196E1
:1048300084918823B1F78FEF9FEF0E943651BC011E
:1048400088E994E04AE050E00E94B0128091C000F4
:1048500085FFFCCF8AE08093C6000C94772F8DE60D
:1048600090E00E94F31D882311F00C94562FE1E490
:10487000F6E007C09091C00095FFFCCF8093C60082
:10488000319684918823B1F71092160783E50E9430
:104890003117882391F00E941B170091DC0410E06F
:1048A000000F111F015B134F0E947163F8017183A8
:1048B000608381E08093720315C082E50E94311706
:1048C000882381F00E941B170091DC0410E0000F88
:1048D000111F015B134F0E947163F80171836083A4
:1048E0001092720383E50E943117882351F00E94D1
:1048F0001B176093800370938103809382039093CE
:10490000830382E40E943117882351F00E941B1711
:1049100060937C0370937D0380937E0390937F0369
:1049200086E40E943117882369F00E941B17609368
:10493000840370938503809386039093870381E0BB
:10494000809316070E9480540E943D5C1B012C013D
:104950000091DC0410E0F801EE0FFF1FE15BF34F64
:1049600060817181882777FD8095982F0E94A463CC
:10497000F801EE0FFF1FEE0FFF1FEB5AF34F11E090
:1049800020813181428153810E94056518160CF007
:1049900010E01093DB041092D104EE24EA94FE2C74
:1049A0008701EEE3F6E0C490EAE3F6E024912F8F6E
:1049B000E6E3F6E0349139A3E8EE6E2EE3E07E2ED6
:1049C000812C912C7AE0D72E1EC18C2DEEE3F6E0DF
:1049D00008C09091C00095FFFCCF8093C60031962F
:1049E00084918823B1F7E091DC04F0E0EE0FFF1F23
:1049F000EE0FFF1FEB5AF34F4081518162817381AB
:104A000088E994E021E030E00E9491138F8DEAE381
:104A1000F6E008C09091C00095FFFCCF8093C600DF
:104A2000319684918823B1F76091DC0488E994E0A1
:104A300070E04AE050E00E94B01289A1E6E3F6E09F
:104A400008C09091C00095FFFCCF8093C6003196BE
:104A500084918823B1F717FF03C0EAEAF2E025C08A
:104A60000E943D5C9B01AC01C801B70168577C4EB8
:104A70008F4F9F4F621B730B840B950BA401930107
:104A80000E94AC6988E994E0BA01A9012AE030E00B
:104A90000E9466128091C00085FFFCCF0DC09091EE
:104AA000C00095FFFCCF8093C60081918823B9F7A1
:104AB0008091C00085FFFCCFD092C6000E943D5C73
:104AC0001B012C010E9479510E94331D8FEFE816C3
:104AD0008FEFF8068FEF08078FEF180709F056C021
:104AE0008091DB04E091DC04882341F1F0E05F0178
:104AF000AA0CBB1CAA0CBB1C25E53CE0A20EB31EF5
:104B0000EE0FFF1FE15BF34F60817181882777FD16
:104B10008095982F0E94A46320E030E040E85FE396
:104B20000E9428629B01AC01F50160817181828144
:104B300093810E94056587FF60C065C0F0E05F015A
:104B4000AA0CBB1CAA0CBB1C25E53CE0A20EB31EA4
:104B5000EE0FFF1FE15BF34F60817181882777FDC6
:104B60008095982F0E94A46320E030E040E85FE346
:104B70000E9429629B01AC01F501608171818281F3
:104B800093810E9402631816C4F53DC017FD3BC017
:104B9000E091DC04F0E05F01AA0CBB1CAA0CBB1C7A
:104BA00025E53CE0A20EB31EEE0FFF1FE15BF34FC5
:104BB00060817181882777FD8095982F0E94A4637A
:104BC0009B01AC01F50160817181828193810E941A
:104BD00028620E947163262F372F482F592F57FFC5
:104BE00007C050954095309521953F4F4F4F5F4FEF
:104BF000243031054105510534F00E943D5CE62E1C
:104C0000F72E082F192F8091D104882311F00C94CE
:104C1000592FFFEFEF16FFEFFF06FFEF0F07FFEF34
:104C20001F0771F017FF02C00C94592F0E943D5CC2
:104C30006E197F0923E16838720710F00C94592F20
:104C40000E943D5C6219730984099509693E33E04D
:104C5000730730E0830730E0930708F0B6CE32CF19
:104C600083E50E943117882361F00E941B170E9480
:104C700071637093520C6093510C81E080937203C6
:104C80000FC082E50E943117882351F00E941B1744
:104C90000E9471637093520C6093510C10927203D6
:104CA0000E943D5C7B018C011092D1046091510CFB
:104CB0007091520C882777FD8095982F0E94A463ED
:104CC000AA24A39420915B0C30915C0C40915D0C64
:104CD00050915E0C0E94056518160CF0AA24A09253
:104CE000DB04E3E3F6E0D490EFE2F6E0C490EBE21D
:104CF000F6E0A490BAE09B2E71C00E943D5C6E1954
:104D00007F09800B910B693EE3E07E07E0E08E07B0
:104D1000E0E09E0708F45EC0E091CE04F0E0EE0F04
:104D2000FF1FEE0FFF1FEB5AF34F4081518162814D
:104D300073818D2DE3E3F6E008C09091C00095FFEC
:104D4000FCCF8093C600319684918823B1F788E91F
:104D500094E022E030E00E9491138C2DEFE2F6E027
:104D600008C09091C00095FFFCCF8093C60031969B
:104D700084918823B1F76091CE0488E994E070E0D3
:104D80004AE050E00E94B0128A2DEBE2F6E008C043
:104D90009091C00095FFFCCF8093C600319684911E
:104DA0008823B1F740915B0C50915C0C60915D0CD5
:104DB00070915E0C88E994E021E030E00E9491134C
:104DC0008091C00085FFFCCF9092C6000E943D5CA0
:104DD0007B018C010E9479510E94331D8091DB047C
:104DE0008823E1F08091D1048823C1F46091510CB3
:104DF0007091520C882777FD8095982F0E94A463AC
:104E000020915B0C30915C0C40915D0C50915E0CDC
:104E10000E94056518160CF470CF1BC06091510CF0
:104E20007091520C882777FD8095982F0E94A4637B
:104E300020915B0C30915C0C40915D0C50915E0CAC
:104E40000E94026387FF05C080917203882309F4E2
:104E500054CF0E943D5C6093E7047093E804809314
:104E6000E9049093EA040C94562F83E50E943117CD
:104E7000882319F10E941B1720E030E0A9010E944D
:104E8000026387FD0FC00E941B1720E030E04FE750
:104E900053E40E940565181644F00E941B170E94F7
:104EA000716305C060E070E002C06FEF70E0709366
:104EB000D0046093CF040C94562F8FEF90E0909322
:104EC000D0048093CF040C94562F1092D0041092EB
:104ED000CF040C94562F80910A01806180930A01BF
:104EE0009FB7F89480910B018F7E80930B019FBF39
:104EF0000C94562F0E9481540E94FF4E129A0E94D9
:104F00006A4F1092D0041092CF0468EE73E080E0F4
:104F100090E00E94715C80910A01806180930A0197
:104F20009FB7F89480910B01806180930B019FBF24
:104F30000C94562F10929C040C94562F81E0809371
:104F40009C040C94562F83E50E943117882399F016
:104F50000E941B1720E030E04AE754E40E94D76526
:104F60000E94766360937303709374038093750358
:104F7000909376039BC788E50E943117882311F030
:104F80000C946E2F89E50E943117882311F00C9440
:104F90006E2F8AE50E943117882309F09FC785E4A8
:104FA0000E943117882309F099C70E94FF4E129A78
:104FB0000E946A4F7BC79FB7F89480910B01826073
:104FC00080930B019FBF1092C70489E50E9431179F
:104FD000882321F0899AA29A1092C8048AE50E9437
:104FE0003117882351F09FB7F894809108018160B0
:104FF000809308019FBF1092C90485E40E94311775
:10500000882309F453C7129A51C783E50E943117C8
:10501000882309F44BC70E941B1720E030E04AE7C1
:1050200054E40E94D7650E9476636093EB0470930A
:10503000EC048093ED049093EE0438C727ED33E041
:1050400038A32F8F0AEB16E0EAEAEE2EE6E0FE2EFA
:1050500076EFA72E76E0B72ECC24EF8DF8A18191C4
:10506000F8A3EF8F0E943117882309F464C0FC2D48
:10507000F33009F059C00E941B171B012C0120E0DE
:1050800030E040EA51E40E94026387FF47C0F80124
:105090006081718182819381A20191010E940963E3
:1050A000D62E972E882E792E6091EE067091EF06FF
:1050B0008091F0069091F1062D2D392D482D572D18
:1050C0000E94D7656093EE067093EF068093F0061A
:1050D0009093F106F70160817181828193812D2D7A
:1050E000392D482D572D0E94D765F70160837183B4
:1050F00082839383F50160817181828193810E9413
:10510000A2632D2D392D482D572D0E94D7650E9461
:105110007663F5016083718382839383F801208233
:1051200031824282538207C00E941B17F8016083BC
:10513000718382839383C3940C5F1F4F24E030E01C
:10514000E20EF31EA20EB31E3C2D343009F085CFC3
:10515000ADC6E6E4F5E007C09091C00095FFFCCF36
:105160008093C600319684918823B1F79FC68091C1
:1051700014059091150505966AE270E00E94D661CB
:10518000009709F493C6FC01108290C6E3E4F5E0B1
:1051900007C09091C00095FFFCCF8093C600319668
:1051A00084918823B1F740919F045091A0046091AD
:1051B000A1047091A20488E994E022E030E00E940A
:1051C0009113EFE3F5E007C09091C00095FFFCCF8D
:1051D0008093C600319684918823B1F74091A3044F
:1051E0005091A4046091A5047091A60488E994E00C
:1051F00022E030E00E949113EBE3F5E007C09091CC
:10520000C00095FFFCCF8093C6003196849188231F
:10521000B1F74091A7045091A8046091A90470913E
:10522000AA0488E994E022E030E00E949113E7E3C9
:10523000F5E007C09091C00095FFFCCF8093C600B9
:10524000319684918823B1F74091AB045091AC041E
:105250006091AD047091AE0488E994E022E030E002
:105260000E949113ECE2F5E007C09091C00095FF19
:10527000FCCF8093C600319684918823B1F70E94B9
:10528000584F0E94A4632091BA063091BB0640910A
:10529000BC065091BD060E940963AB01BC0188E9C0
:1052A00094E022E030E00E949113E8E2F5E007C0CC
:1052B0009091C00095FFFCCF8093C60031968491F9
:1052C0008823B1F781E00E94584F0E94A463209187
:1052D000BE063091BF064091C0065091C1060E94A3
:1052E0000963AB01BC0188E994E022E030E00E9450
:1052F0009113E4E2F5E007C09091C00095FFFCCF68
:105300008093C600319684918823B1F782E00E9491
:10531000584F0E94A4632091C2063091C306409169
:10532000C4065091C5060E940963AB01BC0188E91F
:1053300094E022E030E00E9491138091C00085FF4C
:10534000FCCF8AE08093C600B1C580E00E942F4761
:10535000ADC581E00E942F47A9C59091C00095FF7F
:10536000FCCF8093C60081918823B9F78091C0005B
:1053700085FFFCCF8AE08093C600ECE1F5E007C032
:105380009091C00095FFFCCF8093C6003196849128
:105390008823B1F7309B03C0E2E8F2E009C0ECE8F3
:1053A000F2E006C09091C00095FFFCCF8093C6004C
:1053B00081918823B9F78091C00085FFFCCF8AE0F6
:1053C0008093C600E4E1F5E007C09091C00095FF2E
:1053D000FCCF8093C600319684918823B1F7319930
:1053E00003C0E2E8F2E009C0ECE8F2E006C0909108
:1053F000C00095FFFCCF8093C60081918823B9F748
:105400008091C00085FFFCCF8AE08093C600ECE06D
:10541000F5E007C09091C00095FFFCCF8093C600D7
:10542000319684918823B1F7329903C0E2E8F2E023
:1054300009C0ECE8F2E006C09091C00095FFFCCFF7
:105440008093C60081918823B9F78091C00085FFC1
:10545000FCCF8AE08093C600E4E0F5E007C09091BD
:10546000C00095FFFCCF8093C600319684918823BD
:10547000B1F7339B03C0E2E8F2E009C0ECE8F2E0E8
:1054800006C09091C00095FFFCCF8093C60081912B
:105490008823B9F78091C00085FFFCCF8AE0809314
:1054A000C600ECEFF4E007C09091C00095FFFCCF80
:1054B0008093C600319684918823B1F7349B03C052
:1054C000E2E8F2E009C0ECE8F2E006C09091C0002A
:1054D00095FFFCCF8093C60081918823B9F7809116
:1054E000C00085FFFCCF8AE08093C600E4EFF4E0C3
:1054F00007C09091C00095FFFCCF8093C600319605
:1055000084918823B1F7359903C0E2E8F2E009C03D
:10551000ECE8F2E006C09091C00095FFFCCF8093CC
:10552000C60081918823B9F78091C00085FFFCCF28
:105530008AE08093C600BAC484E40E9431178823AD
:1055400009F4B4C40E941B1720E030E040E05FE3A0
:105550000E94D765D62EE72E8C01912F20E030E0F7
:10556000A9010E9402638823A9F06D2D7E2D802F52
:10557000912F2D2D3E2D402F512F0E94D7652BEDC1
:105580003FE049E450E40E94D765A62EC72ED82EEE
:10559000E92E06C0AA24CC2460E8D62E5FE3E52ECF
:1055A0008091CE048093DC0484E50E943117882327
:1055B00011F10E941B170E9476636093DC0466233E
:1055C000D1F0E9E4F3E007C09091C00095FFFCCF73
:1055D0008093C600319684918823B1F7ECEAF2E01B
:1055E00006C09091C00095FFFCCF8093C6008191CA
:1055F0008823B9F75BC40091DC0410E0000F111F91
:10560000000F111F0E591C4F60E070E080E89FE30F
:105610002A2D3C2D4D2D5E2D0E940963F8016083DB
:1056200071838283938342C407ED13E03AECE32E47
:1056300036E0F32EF80181918F010E943117882303
:1056400049F00E941B170E947663F7016083718303
:105650008283938324E030E0E20EF31E33E00B3DBF
:10566000130741F70E94604621C407ED13E02AEAC0
:10567000E22E26E0F22EF80181918F010E9431176F
:10568000882339F00E941B17F7016083718382839E
:10569000938324E030E0E20EF31E33E00B3D13076A
:1056A00051F704C483E50E943117882351F00E940A
:1056B0001B176093DE067093DF068093E0069093DD
:1056C000E10684E50E943117882309F4EFC30E94A4
:1056D0001B176093E2067093E3068093E4069093B1
:1056E000E506E4C383E50E943117882351F00E9448
:1056F0001B176093DA067093DB068093DC069093A9
:10570000DD0684E50E943117882351F00E941B17A3
:105710006093F2067093F3068093F4069093F50677
:1057200082E40E943117882361F00E941B170E94B7
:1057300076636093A6067093A7068093A80690935D
:10574000A90688E50E943117882351F00E941B1793
:105750006093E6067093E7068093E8069093E90667
:105760008AE50E943117882351F00E941B1760932D
:10577000EA067093EB068093EC069093ED0685E4C1
:105780000E943117882309F491C30E941B1760936C
:10579000EE067093EF068093F0069093F10686C3B1
:1057A00007ED13E09FEAE92E94E0F92EF8018191CC
:1057B0008F010E943117882339F00E941B17F701CF
:1057C000608371838283938324E030E0E20EF31ED2
:1057D00033E00A3D130751F769C383E50E9431178F
:1057E000882309F463C30E941B170E94716370939E
:1057F0005D0360935C035AC383E50E9431178823DD
:1058000009F454C30E941B170E9471637B018C0131
:1058100084E50E943117882389F08DED90E00E9485
:10582000F31D882309F042C3E091DC04F0E0EE0FA1
:10583000FF1FE05AFC4FF182E08238C3F0925F0311
:10584000E0925E0333C380E50E943117882309F498
:105850002DC30E941B170E9471638B0183E50E9478
:105860003117882331F00E941B170E9471637B015E
:1058700003C0EE24EA94FE2CC70101968330910503
:1058800008F014C3EBEDF3E081919191801791073B
:1058900009F40CC384E0E331F807B1F717FD06C340
:1058A0000E94FF4ED02E802F60E00E94495EE114DE
:1058B000F10471F091E0E916F10419F401E010E04F
:1058C0000EC0802F0E94A55E01E010E0009739F025
:1058D00000E010E004C00E9479510E94331D8D2D1C
:1058E0000E94A55E80179107B1F7E0C280E50E9493
:1058F0003117882351F00E941B1760939103709316
:105900009203809393039093940389E40E94311748
:10591000882361F00E941B170E94D95B6093950356
:1059200070939603809397039093980384E40E9466
:105930003117882361F00E941B170E94E75B609378
:10594000990370939A0380939B0390939C0383E441
:105950000E943117882351F00E941B1760939D030A
:1059600070939E0380939F039093A0030E941F5106
:10597000E3ECF2E006C09091C00095FFFCCF80936D
:10598000C60081918823B9F7E6ECF2E006C0909159
:10599000C00095FFFCCF8093C60081918823B9F7A2
:1059A00040919103509192036091930370919403FD
:1059B00088E994E022E030E00E949113EAECF2E002
:1059C00006C09091C00095FFFCCF8093C6008191E6
:1059D0008823B9F76091950370919603809197039E
:1059E000909198030E94E05BAB01BC0188E994E0D0
:1059F00022E030E00E949113EEECF2E006C09091BC
:105A0000C00095FFFCCF8093C60081918823B9F731
:105A10006091990370919A0380919B0390919C03EC
:105A20000E94EE5BAB01BC0188E994E022E030E02B
:105A30000E949113E2EDF2E006C09091C00095FF44
:105A4000FCCF8093C60081918823B9F740919D03D4
:105A500050919E0360919F037091A00388E994E0A8
:105A600022E030E00E9491138091C00085FFFCCFBE
:105A70008AE08093C6001AC283E50E94311788230A
:105A800019F00E941B1703C060E070E0CB010E9478
:105A900057460CC285E40E943117882341F00E94CA
:105AA0001B170E9471635B0177FD0EC002C0AA2420
:105AB000BB240F2EF0E0EF2EF0E0FF2EF6E10F2FCB
:105AC000F3E41F2FF02D0AC00F2EF0E0EF2EF0E0D0
:105AD000FF2EFCE80F2FF2E41F2FF02D83E50E942C
